:020000040800F2
:1000000000000120F56D0008B5660008C366000811
:10001000C9660008CF660008D56600080000000029
:10002000000000000000000000000000DB66000887
:10003000E966000800000000F76600080567000890
:10004000456E0008456E0008456E0008456E0008C4
:10005000456E0008456E0008456E0008456E0008B4
:10006000456E0008456E0008456E0008456E0008A4
:10007000456E0008456E0008456E0008456E000894
:10008000456E0008456E0008456E0008456E000884
:10009000456E0008456E0008456E0008456E000874
:1000A00011670008456E0008456E0008456E00089F
:1000B000516900080000000000000000456E0008C3
:1000C000456E0008456E0008456E0008456E000844
:1000D000456E00083D6C0008456E0008456E00083E
:1000E000456E0008456E000800000000000000009A
:1000F0000000000000000000000000000000000000
:1001000000000000456E000800000000456E000879
:100110000000000000000000456E0008456E000869
:10012000456E0008456E0008456E0008456E0008E3
:10013000456E000800000000000000000000000004
:10014000456E0008456E0008456E0008000000007E
:10015000456E0008456E0008456E0008456E0008B3
:10016000456E0008456E0008456E0008000000005E
:10017000456E0008456E0008000000000000000009
:0C018000456E0008456E0008456E000842
:1001900010B5054C237833B9044B13B10448AFF3C1
:1001A00000800123237010BDAC020020000000007D
:1001B0004C2A010808B5034B1BB103490348AFF3B0
:1001C000008008BD00000000B00200204C2A010899
:1001D0006FF0030C043904E04FF0040C01EB8201D2
:1001E0005242920000D170472DE9F047C3EA03461E
:1001F000C3EA2347B0F800A044888388C5880089F3
:10020000C5F57045C3EA004E6346C4EA054C34B2F6
:100210003DB24FEA04384FEA053934003D008858B2
:100220001AFB00881AFB10992CFB04882CFB1599EB
:100230004EFB06884EFB179926002F00C0EA0814D3
:10024000C0EA29352804C0EA24408850D218E6D1F3
:10025000BDE8F0876FF0010C023904E05FF0020C9A
:1002600001EB42015242520000D170472DE9F044A7
:100270006746B0F800A044888588C6880089C6F51E
:100280007046C4EA064CC5EA004EC3EA03442500A2
:100290001BB21E03885A1AFB00662CFB04664EFB39
:1002A00005662500C0EA061420148852D219F1D13F
:1002B000BDE8F084034613F8012B002AFBD1181A7D
:1002C000013870470000000000000000000000003E
:1002D00001F0FF01102A2BDB10F0070F08D010F8F7
:1002E000013B013A8B422DD010F0070F42B3F6D1FB
:1002F000F0B441EA012141EA014122F007047FF014
:1003000000070023F0E80256083C85EA010586EA6A
:10031000010685FA47F5A3FA87F586FA47F6A5FAA6
:1003200087F68EB9EED1F0BC01F0FF0102F00702B2
:1003300032B110F8013B013A83EA010313B1F8D15D
:100340000020704701387047002D06BF354603383E
:10035000073815F0010F07D1013015F4807F02BF77
:10036000013015F4C03F0130F0BC0138704700BFC8
:1003700081F0004102E000BF83F0004330B54FEA56
:1003800041044FEA430594EA050F08BF90EA020FC3
:100390001FBF54EA000C55EA020C7FEA645C7FEA56
:1003A000655C00F0E2804FEA5454D4EB5555B8BF79
:1003B0006D420CDD2C4480EA020281EA030382EAEA
:1003C000000083EA010180EA020281EA0303362D7C
:1003D00088BF30BD11F0004F4FEA01314FF4801C4F
:1003E0004CEA113102D0404261EB410113F0004F61
:1003F0004FEA03334CEA133302D0524263EB430318
:1004000094EA050F00F0A780A4F10104D5F1200EB5
:100410000DDB02FA0EFC22FA05F2801841F1000110
:1004200003FA0EF2801843FA05F359410EE0A5F1E4
:1004300020050EF1200E012A03FA0EFC28BF4CF015
:10044000020C43FA05F3C01851EBE37101F00045CB
:1004500007D54FF0000EDCF1000C7EEB00006EEBD8
:100460000101B1F5801F1BD3B1F5001F0CD3490862
:100470005FEA30004FEA3C0C04F101044FEA4452B9
:1004800012F5800F80F09A80BCF1004F08BF5FEA40
:10049000500C50F1000041EB045141EA050130BD20
:1004A0005FEA4C0C404141EB010111F4801FA4F1C3
:1004B0000104E9D191F0000F04BF01460020B1FA18
:1004C00081F308BF2033A3F10B03B3F120020CDA50
:1004D0000C3208DD02F1140CC2F10C0201FA0CF02E
:1004E00021FA02F10CE002F11402D8BFC2F1200C93
:1004F00001FA02F120FA0CFCDCBF41EA0C01904049
:10050000E41AA2BF01EB0451294330BD6FEA040491
:100510001F3C1CDA0C340EDC04F11404C4F120027C
:1005200020FA04F001FA02F340EA030021FA04F38E
:1005300045EA030130BDC4F10C04C4F1200220FAE5
:1005400002F001FA04F340EA0300294630BD21FA23
:1005500004F0294630BD94F0000F83F4801306BFE9
:1005600081F480110134013D4EE77FEA645C18BFDD
:100570007FEA655C29D094EA050F08BF90EA020F74
:1005800005D054EA000C04BF1946104630BD91EA6C
:10059000030F1EBF0021002030BD5FEA545C05D16F
:1005A0004000494128BF41F0004130BD14F58004AE
:1005B0003CBF01F5801130BD01F0004545F0FE4122
:1005C00041F470014FF0000030BD7FEA645C1ABF57
:1005D000194610467FEA655C1CBF0B46024650EA8E
:1005E000013406BF52EA033591EA030F41F40021BA
:1005F00030BD00BF90F0000F04BF0021704730B540
:100600004FF4806404F132044FF000054FF0000114
:1006100050E700BF90F0000F04BF0021704730B5D5
:100620004FF4806404F1320410F0004548BF4042AA
:100630004FF000013EE700BF42004FEAE2014FEAFF
:1006400031014FEA02701FBF12F07F4393F07F4FDA
:1006500081F06051704732F07F4208BF704793F0DD
:100660007F4F04BF41F40021704730B54FF46074F0
:1006700001F0004521F000411CE700BF50EA0102F3
:1006800008BF704730B54FF000050AE050EA01029C
:1006900008BF704730B511F0004502D5404261EB0C
:1006A00041014FF4806404F132045FEA915C3FF44D
:1006B000D8AE4FF003025FEADC0C18BF03325FEAEA
:1006C000DC0C18BF033202EBDC02C2F1200300FA9B
:1006D00003FC20FA02F001FA03FE40EA0E0021FAC0
:1006E00002F11444BDE600BF70B54FF0FF0C4CF4AE
:1006F000E06C1CEA11541DBF1CEA135594EA0C0F60
:1007000095EA0C0F00F0DEF82C4481EA030621EA9A
:100710004C5123EA4C5350EA013518BF52EA0335D5
:1007200041F4801143F4801338D0A0FB02CE4FF087
:100730000005E1FB02E506F00042E0FB03E54FF0B7
:100740000006E1FB03569CF0000F18BF4EF0010EAF
:10075000A4F1FF04B6F5007F64F5407404D25FEAAB
:100760004E0E6D4146EB060642EAC62141EA55515E
:100770004FEAC52040EA5E504FEACE2EB4F1FD0CA0
:1007800088BFBCF5E06F1ED8BEF1004F08BF5FEA1E
:10079000500E50F1000041EB045170BD06F00046D0
:1007A00046EA010140EA020081EA0301B4EB5C047D
:1007B000C2BFD4EB0C0541EA045170BD41F4801175
:1007C0004FF0000E013C00F3AB8014F1360FDEBF9A
:1007D000002001F0004170BDC4F10004203C35DA76
:1007E0000C341BDC04F11404C4F1200500FA05F3F9
:1007F00020FA04F001FA05F240EA020001F000429A
:1008000021F0004110EBD37021FA04F642EB06010F
:100810005EEA430E08BF20EAD37070BDC4F10C0439
:10082000C4F1200500FA04F320FA05F001FA04F2FD
:1008300040EA020001F0004110EBD37041F10001E9
:100840005EEA430E08BF20EAD37070BDC4F12005F4
:1008500000FA05F24EEA020E20FA04F301FA05F25C
:1008600043EA020321FA04F001F0004121FA04F204
:1008700020EA020000EBD3705EEA430E08BF20EAD4
:10088000D37070BD94F0000F0FD101F0004640000E
:1008900041EB010111F4801F08BF013CF7D041EA90
:1008A000060195F0000F18BF704703F00046520094
:1008B00043EB030313F4801F08BF013DF7D043EA65
:1008C0000603704794EA0C0F0CEA135518BF95EA1B
:1008D0000C0F0CD050EA410618BF52EA4306D1D1A2
:1008E00081EA030101F000414FF0000070BD50EAC1
:1008F000410606BF1046194652EA430619D094EA4B
:100900000C0F02D150EA013613D195EA0C0F05D134
:1009100052EA03361CBF104619460AD181EA030188
:1009200001F0004141F0FE4141F470014FF0000040
:1009300070BD41F0FE4141F4780170BD70B54FF0DB
:10094000FF0C4CF4E06C1CEA11541DBF1CEA13555B
:1009500094EA0C0F95EA0C0F00F0A7F8A4EB05043D
:1009600081EA030E52EA03354FEA013100F0888034
:100970004FEA03334FF0805545EA131343EA1263FD
:100980004FEA022245EA111545EA10654FEA0026B2
:100990000EF000419D4208BF964244F1FD0404F56B
:1009A000407402D25B084FEA3202B61A65EB0305C7
:1009B0005B084FEA32024FF480104FF4002CB6EB84
:1009C000020E75EB030E22BFB61A754640EA0C0004
:1009D0005B084FEA3202B6EB020E75EB030E22BF44
:1009E000B61A754640EA5C005B084FEA3202B6EB85
:1009F000020E75EB030E22BFB61A754640EA9C0044
:100A00005B084FEA3202B6EB020E75EB030E22BF13
:100A1000B61A754640EADC0055EA060E18D04FEAD1
:100A2000051545EA16754FEA06164FEAC30343EA71
:100A300052734FEAC2025FEA1C1CC0D111F4801F3E
:100A40000BD141EA00014FF000004FF0004CB6E737
:100A500011F4801F04BF01430020B4F1FD0C88BFD6
:100A6000BCF5E06F3FF6AFAEB5EB030C04BFB6EBE1
:100A7000020C5FEA500C50F1000041EB045170BDD4
:100A80000EF0004E4EEA113114EB5C04C2BFD4EB01
:100A90000C0541EA045170BD41F480114FF0000E85
:100AA000013C90E645EA060E8DE60CEA135594EA01
:100AB0000C0F08BF95EA0C0F3FF43BAF94EA0C0F04
:100AC0000AD150EA01347FF434AF95EA0C0F7FF479
:100AD00025AF104619462CE795EA0C0F06D152EACD
:100AE00003353FF4FDAE1046194622E750EA4106B1
:100AF00018BF52EA43067FF4C5AE50EA41047FF4C2
:100B00000DAF52EA43057FF4EBAE12E74FEA410224
:100B1000B2F1E04324BFB3F5001CDCF1FE5C0DD95B
:100B200001F0004C4FEAC0024CEA5070B2F1004FA5
:100B300040EB830008BF20F00100704711F0804FA8
:100B400021D113F13872BCBF01F00040704741F46D
:100B500080114FEA5252C2F11802C2F1200C10FA71
:100B60000CF320FA02F018BF40F001004FEAC12355
:100B70004FEAD32303FA0CFC40EA0C0023FA02F3F9
:100B80004FEA4303CCE77FEA625307D150EA0133CF
:100B90001EBF4FF0FE4040F44000704701F000409F
:100BA00040F0FE4040F40000704700BF53B94AB91E
:100BB000002908BF00281CBF4FF0FF314FF0FF3065
:100BC00000F072B9ADF1080C6DE904CE00F006F842
:100BD000DDF804E0DDE9022304B070472DE9F047B9
:100BE000089E04468846002B4BD18A42154667D999
:100BF000B2FA82F24AB1C2F1200701FA02F320FAF6
:100C000007F7954047EA030894404FEA154E230C36
:100C1000B8FBFEF71FFA85FC0EFB178843EA084372
:100C200007FB0CF1994209D9EB1807F1FF3080F06E
:100C30001B81994240F21881023F2B445B1AA4B2F7
:100C4000B3FBFEF00EFB103344EA034400FB0CFC44
:100C5000A44509D92C1900F1FF3380F00781A44580
:100C600040F2048102382C4440EA0740A4EB0C0413
:100C700000271EB1D4400023C6E900433946BDE831
:100C8000F0878B4209D9002E00F0EB800027C6E9DF
:100C9000000138463946BDE8F087B3FA83F7002FE4
:100CA00047D18B4202D3824200F2FA80841A61EB70
:100CB000030301209846002EE0D0C6E90048DDE796
:100CC00002B9FFDEB2FA82F2002A40F08F80491B9F
:100CD0004FEA154E1FFA85F80127B1FBFEFC230CE5
:100CE0000EFB1C1143EA014308FB0CF1994207D9A2
:100CF000EB180CF1FF3002D2994200F2CD8084460D
:100D0000591AA3B2B1FBFEF00EFB101443EA0444DF
:100D100008FB00F8A04507D92C1900F1FF3302D2D7
:100D2000A04500F2B6801846A4EB080440EA0C4047
:100D30009FE7C7F1200CBB4022FA0CFE4EEA030EDF
:100D400001FA07F420FA0CF521FA0CF34FEA1E48D9
:100D50002543B3FBF8F92C0C08FB19331FFA8EFA64
:100D600044EA034309FB0AF49C4202FA07F200FA40
:100D700007F10BD91EEB030309F1FF3080F08780E8
:100D80009C4240F28480A9F1020973441B1BADB25E
:100D9000B3FBF8F008FB103345EA034400FB0AFA02
:100DA000A24508D91EEB040400F1FF336BD2A24523
:100DB00069D90238744440EA0940A0FB0289A4EBD7
:100DC0000A044C45C2464B4654D351D0002E69D03C
:100DD000B1EB0A0564EB030404FA0CFCFD40FC4093
:100DE0004CEA0505C6E90054002747E7C2F1200395
:100DF00020FA03F7954001FA02F021FA03F34FEAD3
:100E0000154E3843010CB3FBFEF71FFA85F80EFBB5
:100E1000173341EA034107FB08F38B4204FA02F45B
:100E200007D9691807F1FF3C2FD28B422DD9023F19
:100E30002944CB1A81B2B3FBFEF00EFB103341EA1A
:100E4000034100FB08F38B4207D9691800F1FF3C0E
:100E500017D28B4215D902382944C91A40EA0747EC
:100E60003BE73746304609E70746E7E61846FBE624
:100E70004145ABD2B8EB020A69EB0E0201381346CA
:100E8000A4E76046E9E7184695E76746D1E781465B
:100E90007CE702382C4447E7ACF1020C2B442FE7E7
:100EA000384608E73746E9E6704700BF80B582B0AC
:100EB00000AF78607B68054AA2FB03239B091846B4
:100EC00000F0B8F900BF0837BD4680BDD34D6210B1
:100ED00080B586B002AFF860B9607A600022402128
:100EE0000B4801F019F87B689AB241F288330093FD
:100EF0001346BA68B968074802F0D2F901224021C6
:100F0000034801F009F800BF1037BD4680BD00BF9F
:100F1000000800482C0C002080B500AF00224021C2
:100F2000054800F0F9FF00228021034800F0F4FF9B
:100F30000123184680BD00BF0008004880B400AF00
:100F4000054B1B78022B01D1002300E0012318463A
:100F5000BD465DF8047B7047C802002080B582B0B2
:100F600000AF7860164B1B78022B22D0FFF7E6FF0C
:100F70000346002B14D041F28830FFF797FF01227F
:100F80008021104800F0C8FF41F28830FFF78EFF43
:100F9000012240210B4800F0BFFF094B01221A70CB
:100FA000074B1B78012B06D1054B02221A7000BF9C
:100FB00002E000BF00E000BF0837BD4680BD00BFB3
:100FC000C80200200008004880B584B000AF7860F7
:100FD0000A4B1B78022B0BD1FFF79EFF0346FB73D6
:100FE000FB7B002B06D0054B00221A7000BF01E0EE
:100FF00000BF00E000BF1037BD4680BDC802002022
:1010000080B584B000AF7860396000F007F9F8600F
:101010000DE03B68002B07D000F000F90246FB68AA
:10102000D31A3A689A4201D2002309E030BF4FF444
:101030008051054800F058FF0346012BE9D10123F8
:1010400018461037BD4680BD0004004880B400AF8C
:10105000044B07EE903AB0EE670ABD465DF8047B9C
:10106000704700BF001BB74B80B500AF00F0D6F84B
:101070000346184680BD000080B592B006AFF86008
:10108000B9607A60FFF7F0FFF862FB6ABB62BB6A87
:10109000254AA2FB03235B0D7B62BB6A234AA2FBAA
:1010A00003239A0B224BA3FB021359090B461B0186
:1010B0005B1A9B00D31A3B62BB6A1E4AA2FB032346
:1010C0009A091B4BA3FB021359090B461B015B1A20
:1010D0009B00D31AFB61BB6A164AA2FB031292095A
:1010E0004FF47A7101FB02F29B1ABB61FB68042B7F
:1010F00004D8114AFB6813441B7800E03F23FB75BA
:10110000FB7D7A680492BA680392029300230193EC
:10111000BB690093FB693A6A796A08480FF05AFB89
:1011200000BF3037BD4680BDB17C219573B2E74525
:1011300089888888D34D6210902A0108642A0108A2
:10114000B0B48FB000AF78600E4B07F108041D46B5
:101150000FCD0FC40FCD0FC495E80F0084E80F002A
:101160007B681D4607F108040FCC0FC50FCC0FC5D7
:1011700094E80F0085E80F0078683C37BD46B0BCA6
:10118000704700BF982A010880B582B000AF0023E5
:10119000FB71032000F052F9002000F00DF8034627
:1011A000002B02D00123FB7101E005F05FFAFB790F
:1011B00018460837BD4680BD80B584B000AF786062
:1011C0000023FB730C4B1B680C4AA2FB03239B09F7
:1011D000184600F076F90346002B02D00123FB737A
:1011E00005E0002279684FF0FF3000F032F9FB7B18
:1011F00018461037BD4680BD44010020D34D621013
:1012000080B400AF044B1B680133034A136000BF76
:10121000BD465DF8047B7047F00B002080B400AF42
:10122000034B1B681846BD465DF8047B704700BF42
:10123000F00B002080B584B000AF7860FFF7EEFFC0
:10124000B8607B68FB60FB68B3F1FF3F02D0FB68CE
:101250000133FB6000BFFFF7E1FF0246BB68D31A12
:10126000FA689A42F7D800BF1037BD4680BD00002B
:1012700080B485B000AF78607B6803F00703FB6043
:101280000C4BDB68BB60BA684FF6FF031340BB60D2
:10129000FB681A02BB68134343F0BF6343F4003397
:1012A000BB60044ABB68D36000BF1437BD465DF81D
:1012B000047B704700ED00E080B400AF044BDB68B6
:1012C0001B0A03F007031846BD465DF8047B704710
:1012D00000ED00E080B483B000AF0346FB71FB7902
:1012E00003F01F02074997F907305B09012000FA54
:1012F00002F241F8232000BF0C37BD465DF8047BA5
:10130000704700BF00E100E080B483B000AF034647
:10131000FB71FB7903F01F02074997F907305B095E
:10132000012000FA02F2203341F8232000BF0C37DD
:10133000BD465DF8047B704700E100E080B483B0F7
:1013400000AF03463960FB7197F90730002B0BDAC9
:101350003B68DAB20C49FB7903F00F03043B12013E
:10136000D2B20B441A7609E03B68DAB2074997F922
:1013700007301201D2B20B4483F8002300BF0C37B0
:10138000BD465DF8047B704700ED00E000E100E041
:1013900080B489B000AFF860B9607A60FB6803F090
:1013A0000703FB61FB69C3F10703042B28BF042378
:1013B000BB61FB690433062B02D9FB69033B00E0E8
:1013C00000237B614FF0FF32BB6902FA03F3DA437B
:1013D000BB681A407B699A404FF0FF317B6901FA84
:1013E00003F3D9437B680B40134318462437BD46AB
:1013F0005DF8047B7047000080B582B000AF786074
:101400007B68013BB3F1807F01D301230FE00A4ADF
:101410007B68013B53600F214FF0FF30FFF78EFFD9
:10142000054B00229A60044B07221A6000231846DD
:101430000837BD4680BD00BF10E000E080B582B037
:1014400000AF78607868FFF713FF00BF0837BD462C
:1014500080BD80B586B000AF0346B9607A60FB738B
:1014600000237B61FFF728FF78617A68B9687869A3
:10147000FFF78EFF024697F90F3011461846FFF727
:101480005DFF00BF1837BD4680BD80B582B000AF9C
:101490000346FB7197F907301846FFF71BFF00BFA3
:1014A0000837BD4680BD80B582B000AF0346FB71F2
:1014B00097F907301846FFF727FF00BF0837BD46EA
:1014C00080BD80B582B000AF78607868FFF794FF88
:1014D000034618460837BD4680BD80B584B000AFCE
:1014E00078600023FB737B6893F82530DBB2022B16
:1014F00005D07B680422DA630123FB7329E07B6853
:101500001B681A687B681B6822F00E021A607B68F1
:101510001B681A687B681B6822F001021A607B68EE
:101520005B6C03F01C027B681B6C012101FA02F268
:101530005A607B68012283F825207B68002283F8AB
:1015400024207B689B6B002B03D07B689B6B7868A7
:101550009847FB7B18461037BD4680BD80B586B0E6
:1015600000AFF860B960C7E9002300233B612F4B4F
:101570001B78012B01D1022353E02C4B01221A705E
:101580004CF2503000F088F80346FB75FB7D002BD1
:1015900043D1264B00225A60254B1B6803F480631D
:1015A000002B09D0224B1B68214A23F4806313606F
:1015B0001E4B02221A7702E01C4B00221A77FB68AE
:1015C000002B07D1D7E90023B86800F0C5F8012344
:1015D0003B6110E0FB68012B02D0FB68022B0AD1B3
:1015E0003B681946B86800F0D9F8FB68022B02D1B5
:1015F0004FF480233B614CF2503000F04DF803462D
:10160000FB753B69002B06D0094B5A693B69DB43EC
:10161000074913404B6100F0CFF9044B00221A70C8
:10162000FB7D18461837BD4680BD00BF0000002076
:101630000020024080B483B000AF0023FB710B4B4D
:101640005B69002B0BDA094B094A9A60074B094A80
:101650009A60064B5B69002B01DA0123FB71FB7971
:1016600018460C37BD465DF8047B704700200240E9
:1016700023016745AB89EFCD80B400AF054B5B69B3
:10168000044A43F00043536100231846BD465DF809
:10169000047B70470020024080B584B000AF7860C2
:1016A000FFF7BCFDF8600DE07B68B3F1FF3F09D0A8
:1016B000FFF7B4FD0246FB68D31A7A689A4201D854
:1016C00003233EE0214B1B6903F48033B3F5803FD5
:1016D000EAD01E4B1A691E4B1340BB601B4B9B6923
:1016E00003F00043BA681343BB60BB68002B1ED0F5
:1016F000184B5A68BB681343164A5360BB6803F023
:101700004043002B07D0114B9A69BB6803F040435C
:101710000E4913438B61BB6823F04043002B04D078
:101720000A4ABB6823F040431361012309E0074BD9
:101730001B6903F00103012B02D1044B01221A6142
:10174000002318461037BD4680BD00BF0020024070
:10175000FAC302000000002090B484B000AFF8602B
:10176000C7E900230C4B5B690B4A43F0010353614B
:10177000FB683A681A60D7E900124FF000034FF097
:10178000000413000024FA680432136000BF10370D
:10179000BD4690BC704700BF0020024080B487B0B7
:1017A00000AF786039604023FB757B683B613B6824
:1017B000FB600F4B5B690E4A43F48023536172B6A2
:1017C000FB681A683B691A603B6904333B61FB683C
:1017D0000433FB60FB7D013BFB75FB7D002BEFD1F0
:1017E00062B600BF1C37BD465DF8047B704700BF82
:1017F0000020024080B584B000AF786039604B4B68
:101800001B78012B01D102238BE0484B01221A7077
:101810004CF25030FFF740FF0346FB73FB7B002B7D
:101820007BD1424B00225A60414B1B6803F400738A
:10183000002B19D03E4B1B683D4A23F40073136004
:101840003B4B1B6803F48063002B09D0384B1B68AB
:10185000374A23F480631360344B03221A7716E06F
:10186000324B01221A7712E0314B1B6803F480637C
:10187000002B09D02E4B1B682D4A23F48063136084
:101880002A4B02221A7702E0284B00221A777B6843
:101890001B68012B11D17B685B68184600F04AF881
:1018A0004CF25030FFF7F8FE0346FB73204B5B69A8
:1018B0001F4A23F0040353612DE03B684FF0FF32D1
:1018C0001A607B689B68BB601DE07B685B6819469B
:1018D000B86800F04DF84CF25030FFF7DDFE0346DB
:1018E000FB73134B5B69124A23F4FF6323F002037B
:1018F0005361FB7B002B03D03B68BA681A600AE097
:10190000BB680133BB607B689A687B68DB68134403
:10191000BA689A42D9D300F04FF8044B00221A70EB
:10192000FB7B18461037BD4680BD00BF000000207D
:101930000020024080B483B000AF78607B6803F081
:101940000103002B05D0094B5B69084A43F00403EF
:101950005361064B5B69054A43F48033536100BF12
:101960000C37BD465DF8047B704700BF0020024085
:1019700080B483B000AF786039600E4B5B6923F4AC
:10198000FF627B68DB0003F4FF630A4913434B618A
:10199000084B5B69074A43F002035361054B5B69DF
:1019A000044A43F48033536100BF0C37BD465DF8F1
:1019B000047B70470020024080B483B000AF1E4B10
:1019C0001B7FFB71FB79012B02D0FB79032B11D11B
:1019D0001A4B1B68194A43F400631360174B1B68CA
:1019E000164A23F400631360144B1B68134A43F434
:1019F00000731360FB79022B02D0FB79032B11D10A
:101A00000E4B1B680D4A43F4805313600B4B1B684D
:101A10000A4A23F480531360084B1B68074A43F4B7
:101A200080631360044B00221A7700BF0C37BD4659
:101A30005DF8047B704700BF0000002000200240DA
:101A400080B487B000AF7860396000237B6154E1D7
:101A50003B681A6801217B6901FA03F31340FB60BC
:101A6000FB68002B00F046813B685B68022B03D0CB
:101A70003B685B68122B23D17B69DA087B680832EC
:101A800053F822303B617B6903F007039B000F2270
:101A900002FA03F3DB433A6913403B613B681A697E
:101AA0007B6903F007039B0002FA03F33A691343CF
:101AB0003B617B69DA087B680832396943F8221098
:101AC0007B681B683B617B695B00032202FA03F3BE
:101AD000DB433A6913403B613B685B6803F00302F8
:101AE0007B695B0002FA03F33A6913433B617B684D
:101AF0003A691A603B685B68012B0BD03B685B68F6
:101B0000022B07D03B685B68112B03D03B685B68F6
:101B1000122B30D17B689B683B617B695B000322A1
:101B200002FA03F3DB433A6913403B613B68DA682E
:101B30007B695B0002FA03F33A6913433B617B68FC
:101B40003A699A607B685B683B6101227B6902FAB3
:101B500003F3DB433A6913403B613B685B681B0955
:101B600003F001027B6902FA03F33A6913433B6114
:101B70007B683A695A607B68DB683B617B695B0024
:101B8000032202FA03F3DB433A6913403B613B68EB
:101B90009A687B695B0002FA03F33A6913433B617D
:101BA0007B683A69DA603B685B6803F08053002B1E
:101BB00000F0A080584B1B6E574A43F00103136698
:101BC000554B1B6E03F00103BB60BB68534A7B6936
:101BD0009B08023352F823303B617B6903F0030317
:101BE0009B000F2202FA03F3DB433A6913403B6187
:101BF0007B68B3F1904F19D07B68494A934213D068
:101C00007B68484A93420DD07B68474A934207D08D
:101C10007B68464A934201D1042308E0072306E08B
:101C2000032304E0022302E0012300E000237A6999
:101C300002F00302920093403A6913433B61374933
:101C40007B699B0802333A6941F82320384B1B68B3
:101C50003B61FB68DB433A6913403B613B685B686F
:101C600003F48033002B03D03A69FB6813433B61D4
:101C70002F4A3B6913602E4B5B683B61FB68DB437B
:101C80003A6913403B613B685B6803F40033002B07
:101C900003D03A69FB6813433B61254A3B695360B3
:101CA000234B9B683B61FB68DB433A6913403B6114
:101CB0003B685B6803F48013002B03D03A69FB6830
:101CC00013433B611A4A3B699360194BDB683B61E4
:101CD000FB68DB433A6913403B613B685B6803F494
:101CE0000013002B03D03A69FB6813433B61104A91
:101CF0003B69D3607B6901337B613B681A687B6910
:101D000022FA03F3002B7FF4A3AE00BF1C37BD46BD
:101D10005DF8047B704700BF0010024000000140E6
:101D20000004004800080048000C0048001000486B
:101D30000004014080B487B000AF786039600023B0
:101D40007B61B7E001227B6902FA03F33A68134032
:101D50003B613B69002B00F0AA807B681A687B69B5
:101D60005B00032101FA03F31A437B681A607B6965
:101D7000DA087B68083253F822107B6903F0070306
:101D80009B000F2202FA03F3DB437A69D208194061
:101D90007B68083243F822107B689A687B695B0095
:101DA000032101FA03F3DB431A407B689A607B68E6
:101DB0005A6801217B6901FA03F3DB431A407B680F
:101DC0005A607B68DA687B695B00032101FA03F3E0
:101DD000DB431A407B68DA603D4A7B699B0802332B
:101DE00052F82330FB607B6903F003039B000F2252
:101DF00002FA03F3FA681340FB607B68B3F1904F7B
:101E000019D07B68334A934213D07B68324A93429D
:101E10000DD07B68314A934207D07B68304A9342A9
:101E200001D1042308E0072306E0032304E0022392
:101E300002E0012300E000237A6902F0030292002D
:101E40009340FA689A4232D17B6903F003039B0006
:101E50000F2202FA03F3FB601D4A7B699B080233E1
:101E600052F82310FB68DA4319487B699B080A4043
:101E7000023340F823201B4B1A683B69DB431949A6
:101E800013400B60174B5A683B69DB4315491340FD
:101E90004B60144B9A683B69DB43124913408B60DB
:101EA000104BDA683B69DB430E491340CB607B691A
:101EB00001337B613A687B6922FA03F3002B7FF4DC
:101EC00041AF00BF1C37BD465DF8047B704700BFC3
:101ED000000001400004004800080048000C0048D1
:101EE000001000480004014080B485B000AF786065
:101EF0000B467B807B681A697B881340002B02D0DD
:101F00000123FB7301E00023FB73FB7B18461437AE
:101F1000BD465DF8047B704780B483B000AF786045
:101F20000B467B8013467B707B78002B03D07A882E
:101F30007B689A6102E07A887B689A6200BF0C37FE
:101F4000BD465DF8047B704780B400AF044B1B684E
:101F500003F4C0631846BD465DF8047B704700BFBC
:101F60000070004080B485B000AF78607B68B3F546
:101F7000007F30D1234B1B6803F4C063B3F5007FAF
:101F800038D0204B1B6823F4C0631E4A43F400730F
:101F900013601D4B1B68322202FB03F31B4AA2FB9A
:101FA00003239B0C0133FB6002E0FB68013BFB60F9
:101FB000144B5B6903F48063B3F5806F02D1FB6857
:101FC000002BF2D10F4B5B6903F48063B3F5806F94
:101FD00010D103230FE00B4B1B6803F4C063B3F570
:101FE000806F07D0074B1B6823F4C063054A43F496
:101FF00080631360002318461437BD465DF8047BE8
:10200000704700BF007000404401002083DE1B4386
:1020100080B588B000AF78607B68002B01D10123C8
:1020200095E3A34B9B6803F00C03BB61A04BDB68FB
:1020300003F003037B617B681B6803F01003002B34
:1020400000F0DF80BB69002B07D0BB690C2B40F090
:1020500086807B69012B40F08280954B1B6803F0E2
:102060000203002B05D07B689B69002B01D1012363
:102070006DE37B681A6A8E4B1B6803F00803002B24
:1020800004D08B4B1B6803F0F00305E0884BD3F8BA
:1020900094301B0903F0F003934223D27B681B6A40
:1020A000184600F00DFD0346002B01D001234EE33E
:1020B0007F4B1B687E4A43F0080313607C4B1B6810
:1020C00023F0F0027B681B6A794913430B60784B5D
:1020D0005B6823F47F427B68DB691B02744913430E
:1020E0004B6022E0724B1B68714A43F00803136097
:1020F0006F4B1B6823F0F0027B681B6A6C4913432B
:102100000B606B4B5B6823F47F427B68DB691B02CF
:10211000674913434B607B681B6A184600F0D0FC8C
:102120000346002B01D0012311E300F0F5FB01462B
:102130005F4B9B681B0903F00F035E4AD35C03F0FF
:102140001F0321FA03F35C4A13600020FFF734F801
:102150000346FB73FB7B002B52D0FB7BF7E27B68D3
:102160009B69002B32D0524B1B68514A43F001034C
:102170001360FFF753F8386108E0FFF74FF80246A5
:102180003B69D31A022B01D90323E0E2484B1B68B9
:1021900003F00203002BF0D0454B1B68444A43F088
:1021A00008031360424B1B6823F0F0027B681B6A34
:1021B0003F4913430B603E4B5B6823F47F427B68CF
:1021C000DB691B023A4913434B601AE0384B1B682A
:1021D000374A23F001031360FFF720F8386108E065
:1021E000FFF71CF802463B69D31A022B01D90323DF
:1021F000ADE22F4B1B6803F00203002BF0D100E08F
:1022000000BF7B681B6803F00103002B72D0BB6921
:10221000082B05D0BB690C2B0ED17B69032B0BD18E
:10222000234B1B6803F40033002B62D07B685B6890
:10223000002B5ED101238AE27B685B68B3F5803FA7
:1022400006D11B4B1B681A4A43F4803313601DE010
:102250007B685B68B3F5A02F0CD1154B1B68144A43
:1022600043F480231360124B1B68114A43F48033FC
:1022700013600BE00E4B1B680D4A23F48033136090
:102280000B4B1B680A4A23F4802313607B685B684E
:10229000002B1AD0FEF7C2FF38610FE0FEF7BEFF39
:1022A00002463B69D31A642B08D903234FE200BFCF
:1022B00000100240E463010844010020AE4B1B689B
:1022C00003F40033002BE9D014E0FEF7A7FF3861D8
:1022D00008E0FEF7A3FF02463B69D31A642B01D93D
:1022E000032334E2A44B1B6803F40033002BF0D12A
:1022F00000E000BF7B681B6803F00203002B60D086
:10230000BB69042B05D0BB690C2B19D17B69022B4F
:1023100016D1994B1B6803F48063002B05D07B68B2
:10232000DB68002B01D1012311E2934B5B6823F0A2
:10233000F8527B681B691B068F4913434B6040E0D2
:102340007B68DB68002B23D08B4B1B688A4A43F4E5
:1023500080731360FEF762FF386108E0FEF75EFFEE
:1023600002463B69D31A022B01D90323EFE1824BCA
:102370001B6803F48063002BF0D07F4B5B6823F075
:10238000F8527B681B691B067B4913434B6018E0BE
:10239000794B1B68784A23F480731360FEF73EFF85
:1023A000386108E0FEF73AFF02463B69D31A022B78
:1023B00001D90323CBE1704B1B6803F48063002B2E
:1023C000F0D17B681B6803F00803002B3CD07B68CE
:1023D0005B69002B1CD0684BD3F89430664A43F0FD
:1023E0000103C2F89430FEF719FF386108E0FEF7E8
:1023F00015FF02463B69D31A022B01D90323A6E13C
:102400005D4BD3F8943003F00203002BEFD01BE0B8
:10241000594BD3F89430584A23F00103C2F8943052
:10242000FEF7FCFE386108E0FEF7F8FE02463B6965
:10243000D31A022B01D9032389E14F4BD3F89430EF
:1024400003F00203002BEFD17B681B6803F0040349
:10245000002B00F0A5800023FB77474B9B6D03F01A
:102460008053002B0DD1444B9B6D434A43F0805366
:102470009365414B9B6D03F08053BB60BB680123A8
:10248000FB773E4B1B6803F48073002B18D13B4B4A
:102490001B683A4A43F480731360FEF7BFFE38614D
:1024A00008E0FEF7BBFE02463B69D31A022B01D9B6
:1024B00003234CE1314B1B6803F48073002BF0D0F5
:1024C0007B689B68012B08D12B4BD3F890302A4AAC
:1024D00043F00103C2F8903024E07B689B68052B31
:1024E00010D1254BD3F89030234A43F00403C2F8AF
:1024F0009030214BD3F890301F4A43F00103C2F8CB
:1025000090300FE01C4BD3F890301B4A23F00103AE
:10251000C2F89030184BD3F89030174A23F00403D8
:10252000C2F890307B689B68002B16D0FEF776FED1
:1025300038610AE0FEF772FE02463B69D31A41F2A7
:102540008832934201D9032301E10B4BD3F8903039
:1025500003F00203002BEDD019E0FEF75FFE3861B7
:102560000EE0FEF75BFE02463B69D31A41F2883269
:10257000934205D90323EAE00010024000700040B6
:10258000754BD3F8903003F00203002BE9D1FB7FA9
:10259000012B05D1704B9B6D6F4A23F080539365DF
:1025A0007B681B6803F02003002B3CD07B685B6AD0
:1025B000002B1CD0684BD3F89830674A43F00103D6
:1025C000C2F89830FEF72AFE386108E0FEF726FED2
:1025D00002463B69D31A022B01D90323B7E05E4BB5
:1025E000D3F8983003F00203002BEFD01BE05A4BD6
:1025F000D3F89830584A23F00103C2F89830FEF718
:102600000DFE386108E0FEF709FE02463B69D31A69
:10261000022B01D903239AE04F4BD3F8983003F0F3
:102620000203002BEFD17B689B6A002B00F08E80A9
:10263000BB690C2B00F088807B689B6A022B55D10C
:10264000454B1B68444A23F080731360FEF7E6FD98
:10265000386108E0FEF7E2FD02463B69D31A022B1F
:1026600001D9032373E03C4B1B6803F00073002B7C
:10267000F0D17B681B6B013B1A017B685B6B1B0213
:102680001A437B68DB6A1A437B68DB6B5B08013BA0
:102690005B051A437B681B6C5B08013B5B061A43B6
:1026A0007B689B6BDB062C491343CB602A4B1B6872
:1026B000294A43F080731360274BDB68264A43F0B6
:1026C0008073D360FEF7AAFD386108E0FEF7A6FD2F
:1026D00002463B69D31A022B01D9032337E01E4B74
:1026E0001B6803F00073002BF0D02FE01A4B1B681F
:1026F000194A23F080731360174B1B6803F00063C3
:10270000002B05D1144BDB68134A23F00303D3607D
:10271000114BDB68104A23F0887323F48033D360B5
:10272000FEF77CFD386108E0FEF778FD02463B6964
:10273000D31A022B01D9032309E0074B1B6803F0CE
:102740000073002BF0D101E0012300E000231846C4
:102750002037BD4680BD00BF0010024080B584B068
:1027600000AF786039607B68002B01D10123C6E09F
:10277000654B1B6803F007033A689A4210D9624B15
:102780001B6823F0070260493B6813430B605E4BF4
:102790001B6803F007033A689A4201D00123AEE0B8
:1027A0007B681B6803F00103002B4CD07B685B68DF
:1027B000032B07D1554B1B6803F00073002B21D16D
:1027C00001239CE07B685B68022B07D14F4B1B68A1
:1027D00003F40033002B15D1012390E07B685B6884
:1027E000002B07D1494B1B6803F00203002B09D1D2
:1027F000012384E0454B1B6803F48063002B01D167
:1028000001237CE0414B9B6823F003027B685B68FB
:102810003E4913438B60FEF701FDF8600AE0FEF7C6
:10282000FDFC0246FB68D31A41F28832934201D97B
:10283000032364E0354B9B6803F00C027B685B6804
:102840009B009A42EBD17B681B6803F00203002BCC
:1028500008D02E4B9B6823F0F0027B689B682B49C5
:1028600013438B60284B1B6803F007033A689A42B6
:1028700010D2254B1B6823F0070223493B68134302
:102880000B60214B1B6803F007033A689A4201D0A2
:10289000012334E07B681B6803F00403002B08D09D
:1028A0001A4B9B6823F4E0627B68DB68174913438B
:1028B0008B607B681B6803F00803002B09D0134B67
:1028C0009B6823F460527B681B69DB000F4913434C
:1028D0008B6000F021F801460C4B9B681B0903F04C
:1028E0000F030B4AD35C03F01F0321FA03F3094AD9
:1028F00013600020FEF760FC0346FB72FB7A18466B
:102900001037BD4680BD00BF0020024000100240CD
:10291000E46301084401002080B489B000AF0023C3
:10292000FB610023BB61464B9B6803F00C033B61DA
:10293000434BDB6803F00303FB603B69002B05D0CE
:102940003B690C2B21D1FB68012B1ED13C4B1B6832
:1029500003F00803002B07D1394BD3F894301B0A3E
:1029600003F00F03FB6105E0354B1B681B0903F007
:102970000F03FB61334AFB6952F82330FB613B696B
:10298000002B0DD1FB69BB610AE03B69042B02D12E
:102990002D4BBB6104E03B69082B01D12B4BBB6184
:1029A0003B690C2B45D1264BDB6803F00303BB606E
:1029B000234BDB681B0903F0070301337B60BB6813
:1029C000022B02D0032B0DD019E01F4A7B68B2FB0B
:1029D000F3F31B4AD268120A02F07F0202FB03F3F0
:1029E0007B6119E0194A7B68B2FBF3F3144AD268A1
:1029F000120A02F07F0202FB03F37B610CE0FA692A
:102A00007B68B2FBF3F30E4AD268120A02F07F022F
:102A100002FB03F37B6100BF094BDB685B0E03F035
:102A2000030301335B003B607A693B68B2FBF3F35D
:102A3000BB61BB6918462437BD465DF8047B70470F
:102A400000100240FC6301080024F40000127A0028
:102A500080B400AF034B1B681846BD465DF8047B8D
:102A6000704700BF4401002080B500AFFFF7F0FFC2
:102A70000146064B9B681B0A03F00703044AD35C1C
:102A800003F01F0321FA03F3184680BD0010024033
:102A9000F463010880B500AFFFF7DAFF0146064B8B
:102AA0009B68DB0A03F00703044AD35C03F01F03AF
:102AB00021FA03F3184680BD00100240F4630108B8
:102AC00080B586B000AF786000233B612A4B9B6DD8
:102AD00003F08053002B03D0FFF736FA786114E03F
:102AE000254B9B6D244A43F080539365224B9B6D8D
:102AF00003F08053FB60FB68FFF726FA78611E4BFA
:102B00009B6D1D4A23F0805393657B69B3F5007F6D
:102B10000BD17B68802B19D97B68A02B02D90223AB
:102B20003B6113E001233B6110E07B68802B02D9FD
:102B300003233B610AE07B68802B02D102233B61C7
:102B400004E07B68702B01D101233B610B4B1B68B8
:102B500023F0070209493B6913430B60074B1B68CD
:102B600003F007033A699A4201D0012300E00023F1
:102B700018461837BD4680BD0010024000200240B4
:102B800080B586B000AF78600023FB740023BB746F
:102B90007B681B6803F40063002B2FD07B685B6CA1
:102BA000B3F5000F05D0B3F5400F15D0002B07D0BB
:102BB0000FE05D4BDB685C4A43F48033D3600CE08C
:102BC0007B6804330021184600F0F0F90346FB74DB
:102BD00003E00123FB7400E000BFFB7C002B0BD162
:102BE000514BD3F8883023F440027B685B6C4E492C
:102BF0001343C1F8883001E0FB7CBB747B681B6821
:102C000003F40033002B00F09E8000237B74464BBE
:102C10009B6D03F08053002B01D1012300E00023C2
:102C2000002B0DD0404B9B6D3F4A43F08053936582
:102C30003D4B9B6D03F08053BB60BB6801237B74ED
:102C40003A4B1B68394A43F480731360FEF7E6FA87
:102C5000F86009E0FEF7E2FA0246FB68D31A022B9D
:102C600002D90323FB7405E0304B1B6803F4807327
:102C7000002BEFD0FB7C002B5AD12B4BD3F890309C
:102C800003F440737B617B69002B1ED07B689B6DD6
:102C90007A699A4219D0244BD3F8903023F44073C8
:102CA0007B61214BD3F890301F4A43F48033C2F844
:102CB00090301D4BD3F890301B4A23F48033C2F878
:102CC0009030194A7B69C2F890307B6903F00103A8
:102CD000002B16D0FEF7A2FAF8600BE0FEF79EFA82
:102CE0000246FB68D31A41F28832934202D9032389
:102CF000FB7406E00C4BD3F8903003F00203002B7A
:102D0000ECD0FB7C002B0BD1074BD3F8903023F495
:102D100040727B689B6D04491343C1F8903009E011
:102D2000FB7CBB7406E000BF001002400070004056
:102D3000FB7CBB747B7C012B05D19B4B9B6D9A4A22
:102D400023F0805393657B681B6803F00103002B1D
:102D50000AD0954BD3F8883023F003027B681B6AB6
:102D600091491343C1F888307B681B6803F0020364
:102D7000002B0AD08C4BD3F8883023F00C027B68F0
:102D80005B6A89491343C1F888307B681B6803F08C
:102D90000403002B0AD0844BD3F8883023F0300290
:102DA0007B689B6A80491343C1F888307B681B6845
:102DB00003F02003002B0AD07B4BD3F8883023F498
:102DC00040627B68DB6A78491343C1F888307B68CE
:102DD0001B6803F40073002B0AD0734BD3F88830C0
:102DE00023F440227B68DB6B6F491343C1F88830C2
:102DF0007B681B6803F48063002B0AD06A4BD3F80E
:102E0000883023F440127B681B6C67491343C1F878
:102E100088307B681B6803F04003002B0AD0624BAC
:102E2000D3F8883023F440527B681B6B5E49134310
:102E3000C1F888307B681B6803F08003002B0AD040
:102E4000594BD3F8883023F440427B685B6B56497A
:102E50001343C1F888307B681B6803F48073002B30
:102E60000AD0514BD3F8883023F440327B689B6BF7
:102E70004D491343C1F888307B681B6803F4002375
:102E8000002B28D0484BD3F8883023F040627B6871
:102E90009B6C45491343C1F888307B689B6CB3F148
:102EA000006F06D1404BDB683F4A43F48013D36088
:102EB00011E07B689B6CB3F1806F0CD17B680433AD
:102EC0000121184600F072F80346FB74FB7C002BCE
:102ED00001D0FB7CBB747B681B6803F48023002B50
:102EE00028D0314BD3F8883023F040627B68DB6C0C
:102EF0002D491343C1F888307B68DB6CB3F1006F58
:102F000006D1294BDB68284A43F48013D36011E0D3
:102F10007B68DB6CB3F1806F0CD17B6804330121DB
:102F2000184600F043F80346FB74FB7C002B01D0ED
:102F3000FB7CBB747B681B6803F48043002B1CD0B4
:102F4000194BD3F8883023F040527B681B6D16492B
:102F50001343C1F888307B681B6DB3F1805F0CD1DF
:102F60007B6804330221184600F020F80346FB7406
:102F7000FB7C002B01D0FB7CBB747B681B6803F4DB
:102F80000043002B0AD0084BD3F8883023F080424E
:102F90007B685B6D04491343C1F88830BB7C1846DD
:102FA0001837BD4680BD00BF0010024080B584B018
:102FB00000AF786039600023FB73734BDB6803F06C
:102FC0000303002B18D0704BDB6803F003027B680F
:102FD0001B689A420DD17B681B68002B09D06A4B95
:102FE000DB681B0903F007035A1C7B685B689A4285
:102FF00044D00123FB7341E07B681B68022B0CD09B
:10300000032B13D0012B20D15F4B1B6803F002036D
:10301000002B1DD10123FB731AE05B4B1B6803F4EB
:103020008063002B16D10123FB7313E0564B1B6802
:1030300003F40033002B0FD1534B1B6803F48023A0
:10304000002B09D10123FB7306E00123FB7304E08D
:1030500000BF02E000BF00E000BFFB7B002B0DD1F2
:10306000494BDB6823F073027B6819687B685B68F7
:10307000013B1B010B4344491343CB60FB7B002BFB
:103080007CD1414B1B68404A23F080631360FEF7FC
:10309000C5F8B86009E0FEF7C1F80246BB68D31A6C
:1030A000022B02D90323FB7305E0374B1B6803F0A7
:1030B0000063002BEFD1FB7B002B5FD13B68002B23
:1030C00010D1314B1B6923F0784323F4FE437A6817
:1030D000926811027A68D268D2060A432A491343D9
:1030E0000B6127E03B68012B12D1274B1B6923F4AE
:1030F000C00323F4FE437A68926811027A68126969
:103100005208013A52050A431F4913430B6111E06B
:103110001D4B1B6923F0C06323F4FE437A68926859
:1031200011027A6852695208013A52060A43164956
:1031300013430B61144B1B68134A43F08063136005
:10314000FEF76CF8B86009E0FEF768F80246BB6865
:10315000D31A022B02D90323FB7305E00A4B1B6829
:1031600003F00063002BEFD0FB7B002B06D1064B56
:103170001A697B689B69044913430B61FB7B184602
:103180001037BD4680BD00BF0010024080B584B03E
:1031900000AF78607B68002B01D101237CE07B6865
:1031A00000229A627B6893F85D30DBB2002B06D177
:1031B0007B68002283F85C20786803F013FA7B6850
:1031C000022283F85D207B681B681A687B681B6895
:1031D00022F040021A607B68DB68B3F5E06F02D929
:1031E0000023FB6002E04FF48053FB607B68DB68E8
:1031F000B3F5706F07D07B68DB68B3F5E06F02D082
:103200007B6800229A627B681B6B002B0BD17B686A
:10321000DB68B3F5E06F03D97B6802221A6302E032
:103220007B6801221A637B685A687B689B681A4333
:103230007B681B691A437B685B691A437B689B69DF
:1032400003F400731A437B68DB691A437B681B6ACB
:1032500042EA03017B689A6A7B681B680A431A602A
:103260007B689B691B0C03F004027B685B6A1A4352
:103270007B685B6B1A437B68DB6842EA03017B680F
:103280001B68FA680A435A607B6800221A667B68EA
:10329000012283F85D20002318461037BD4680BD0B
:1032A00080B58AB000AFF860B9607A607B80012396
:1032B0007B62002387F82330FB6893F85C30012B96
:1032C00001D10223FBE1FB68012283F85C20FDF7BA
:1032D000A5FFF861FB6893F85D30FB76FB685B68DF
:1032E0007B617B887B827B883B82FB7E012B0ED0BF
:1032F0007B69B3F5827F06D1FB689B68002B02D106
:10330000FB7E042B03D0022387F82330CDE1BB687A
:10331000002B05D07B68002B02D07B88002B03D1CB
:10332000012387F82330C0E1FB6893F85D30DBB2FE
:10333000042B03D0FB68052283F85D20FB68002284
:103340001A66FB687A681A64FB687A88A3F84620D4
:10335000FB687A88A3F84420FB68BA689A63FB6824
:103360007A88DA87FB687A889A87FB680022DA64B1
:10337000FB6800221A65FB68DB68B3F5E06F02D8D2
:103380003B8A012B08D9FB681B685A68FB681B68DD
:1033900022F480525A6007E0FB681B685A68FB6899
:1033A0001B6842F480525A60FB681B681B6803F07C
:1033B0004003402B07D0FB681B681A68FB681B683A
:1033C00042F040021A60FB68DB68B3F5E06F7CD91D
:1033D000FB685B68002B02D07B8A012B69D1FB68FC
:1033E0009B6B1A88FB681B68DA60FB689B6B9A1CF6
:1033F000FB689A63FB68DB8F9BB2013B9AB2FB6868
:10340000DA8756E0FB681B689B6803F00203022B17
:103410001BD1FB68DB8F9BB2002B16D07B6A012B84
:1034200013D1FB689B6B1A88FB681B68DA60FB682A
:103430009B6B9A1CFB689A63FB68DB8F9BB2013B1A
:103440009AB2FB68DA8700237B62FB681B689B6883
:1034500003F00103012B1CD1FB68B3F846309BB28B
:10346000002B16D0FB681B68DA68FB681B6C92B2F5
:103470001A80FB681B6C9A1CFB681A64FB68B3F823
:1034800046309BB2013B9AB2FB68A3F84620012369
:103490007B62FDF7C3FE0246FB69D31A3A6B9A4280
:1034A00007D83B6BB3F1FF3F03D0032387F82330EA
:1034B000FBE0FB68DB8F9BB2002BA3D1FB68B3F86A
:1034C00046309BB2002B9DD1DFE0FB685B68002B90
:1034D00003D07B8A012B40F0CB80FB68DB8F9BB253
:1034E000012B12D9FB689B6B1A88FB681B68DA609A
:1034F000FB689B6B9A1CFB689A63FB68DB8F9BB233
:10350000023B9AB2FB68DA87B2E0FB689A6BFB6811
:103510001B680C3312781A70FB689B6B5A1CFB6893
:103520009A63FB68DB8F9BB2013B9AB2FB68DA8738
:103530009EE0FB681B689B6803F00203022B34D1FA
:10354000FB68DB8F9BB2002B2FD07B6A012B2CD129
:10355000FB68DB8F9BB2012B12D9FB689B6B1A882F
:10356000FB681B68DA60FB689B6B9A1CFB689A63BC
:10357000FB68DB8F9BB2023B9AB2FB68DA8712E0F2
:10358000FB689A6BFB681B680C3312781A70FB6837
:103590009B6B5A1CFB689A63FB68DB8F9BB2013BF9
:1035A0009AB2FB68DA8700237B62FB681B689B6822
:1035B00003F00103012B48D1FB68B3F846309BB2FE
:1035C000002B42D0FB68B3F846309BB2012B23D9C5
:1035D000FB681B68DA68FB681B6C92B21A80FB6898
:1035E0001B6C9A1CFB681A64FB68B3F846309BB2EC
:1035F000023B9AB2FB68A3F84620FB68B3F846305A
:103600009BB2012B1FD8FB681B685A68FB681B68BC
:1036100042F480525A6016E0FB681B6803F10C020A
:10362000FB681B6C1278D2B21A70FB681B6C5A1CB8
:10363000FB681A64FB68B3F846309BB2013B9AB250
:10364000FB68A3F8462001237B62FDF7E7FD0246F5
:10365000FB69D31A3A6B9A4203D83B6BB3F1FF3F35
:1036600002D13B6B002B03D1032387F823301CE0EE
:10367000FB68DB8F9BB2002B7FF45BAFFB68B3F87A
:1036800046309BB2002B7FF454AFFA69396BF8686F
:1036900000F0F0F80346002B06D0012387F8233012
:1036A000FB6820221A6600E000BFFB68012283F855
:1036B0005D20FB68002283F85C2097F823301846D1
:1036C0002837BD4680BD80B584B000AFF860B960D2
:1036D0003B601346FB714CE03B68B3F1FF3F48D0C1
:1036E000FDF79CFD0246BB69D31A3A689A4202D99B
:1036F0003B68002B3DD1FB681B685A68FB681B6860
:1037000022F0E0025A60FB685B68B3F5827F11D15A
:10371000FB689B68B3F5004F04D0FB689B68B3F56A
:10372000806F07D1FB681B681A68FB681B6822F072
:1037300040021A60FB689B6AB3F5005F0FD1FB681B
:103740001B681A68FB681B6822F400521A60FB6849
:103750001B681A68FB681B6842F400521A60FB6819
:10376000012283F85D20FB68002283F85C2003239C
:103770000FE0FB681B689A68BB681340BA689A42FE
:103780000CBF01230023DBB21A46FB799A42A3D176
:10379000002318461037BD4680BD80B584B000AF09
:1037A000F860B9607A603B6057E0BB68B3F5C06F02
:1037B00006D17B68002B03D1FB681B680C331B7898
:1037C0003B68B3F1FF3F48D0FDF728FD0246BB69D7
:1037D000D31A3A689A4202D93B68002B3DD1FB6864
:1037E0001B685A68FB681B6822F0E0025A60FB689D
:1037F0005B68B3F5827F11D1FB689B68B3F5004F1E
:1038000004D0FB689B68B3F5806F07D1FB681B6829
:103810001A68FB681B6822F040021A60FB689B6A0A
:10382000B3F5005F0FD1FB681B681A68FB681B6863
:1038300022F400521A60FB681B681A68FB681B6858
:1038400042F400521A60FB68012283F85D20FB6895
:10385000002283F85C20032308E0FB681B689A6859
:10386000BB6813407A689A429FD1002318461037EC
:10387000BD4680BD80B586B002AFF860B9607A60A1
:103880007B680093BB6800224FF4C051F868FFF7D3
:1038900084FF0346002B07D0FB681B6E43F0200219
:1038A000FB681A66032327E07B680093BB6800224D
:1038B0008021F868FFF707FF0346002B07D0FB685D
:1038C0001B6E43F02002FB681A66032314E07B683A
:1038D0000093BB6800224FF4C061F868FFF75DFFFA
:1038E0000346002B07D0FB681B6E43F02002FB68E9
:1038F0001A66032300E0002318461037BD4680BD3A
:1039000080B582B000AF78607B68002B01D10123C5
:103910001DE07B6893F83D30DBB2002B06D17B685D
:10392000002283F83C20786802F0D2FF7B680222F4
:1039300083F83D207B681A687B680433194610467B
:1039400000F074FA7B68012283F83D2000231846BA
:103950000837BD4680BD000080B483B000AF7860FA
:103960007B681B68DA687B681B6842F00102DA60DA
:103970007B681B689A680D4B1340062B0FD07B6841
:103980001B689A68094B1340B3F5803F07D07B68EA
:103990001B681A687B681B6842F001021A600023EA
:1039A00018460C37BD465DF8047B704707000100E0
:1039B00080B483B000AF78607B681B68DA687B688E
:1039C0001B6822F00102DA607B681B681A6A41F208
:1039D00011131340002B0FD17B681B681A6A40F249
:1039E00044431340002B07D17B681B681A687B682F
:1039F0001B6822F001021A60002318460C37BD46EE
:103A00005DF8047B704780B582B000AF78607B685A
:103A10001B681B6903F00203022B22D17B681B6821
:103A2000DB6803F00203022B1BD17B681B686FF07D
:103A300002021A617B6801221A777B681B689B6906
:103A400003F00303002B03D0786800F0D0F905E001
:103A5000786800F0C2F9786800F0D3F97B6800223A
:103A60001A777B681B681B6903F00403042B22D1BF
:103A70007B681B68DB6803F00403042B1BD17B68A5
:103A80001B686FF004021A617B6802221A777B6858
:103A90001B689B6903F44073002B03D0786800F027
:103AA000A6F905E0786800F098F9786800F0A9F9BF
:103AB0007B6800221A777B681B681B6903F0080388
:103AC000082B22D17B681B68DB6803F00803082BF6
:103AD0001BD17B681B686FF008021A617B680422A7
:103AE0001A777B681B68DB6903F00303002B03D0A4
:103AF000786800F07CF905E0786800F06EF9786885
:103B000000F07FF97B6800221A777B681B681B69CD
:103B100003F01003102B22D17B681B68DB6803F0D5
:103B20001003102B1BD17B681B686FF010021A6109
:103B30007B6808221A777B681B68DB6903F4407393
:103B4000002B03D0786800F052F905E0786800F0A7
:103B500044F9786800F055F97B6800221A777B6891
:103B60001B681B6903F00103012B0ED17B681B68E6
:103B7000DB6803F00103012B07D17B681B686FF042
:103B800001021A61786802F0F3FE7B681B681B690A
:103B900003F08003802B0ED17B681B68DB6803F089
:103BA0008003802B07D17B681B686FF080021A614D
:103BB000786800F099FA7B681B681B6903F48073CE
:103BC000B3F5807F0ED17B681B68DB6803F0800350
:103BD000802B07D17B681B686FF480721A6178684C
:103BE00000F08CFA7B681B681B6903F04003402BD4
:103BF0000ED17B681B68DB6803F04003402B07D1C4
:103C00007B681B686FF040021A61786800F003F966
:103C10007B681B681B6903F02003202B0ED17B6897
:103C20001B68DB6803F02003202B07D17B681B682F
:103C30006FF020021A61786800F04CFA00BF083774
:103C4000BD4680BD80B584B000AF786039607B68C8
:103C500093F83C30012B01D10223BAE07B680122AA
:103C600083F83C207B68022283F83D207B681B6838
:103C70009B68FB60FB6823F4803323F07703FB60D1
:103C8000FB6823F47F43FB607B681B68FA689A60DB
:103C90003B681B68402B7AD0402B0DD8102B00F0CE
:103CA0008680102B03D8002B00F0818088E0202B29
:103CB0007DD0302B7BD083E0702B18D0702B04D8B4
:103CC000502B44D0602B52D07AE0B3F5805F03D004
:103CD000B3F5005F28D073E07B681B689B687A6847
:103CE000126823F4803323F00703936068E07B6855
:103CF00018683B6899683B685A683B68DB6800F065
:103D000073F97B681B689B68FB60FB6823F4803356
:103D100023F07703FB60FB6843F07703FB607B686D
:103D20001B68FA689A604BE07B6818683B68996882
:103D30003B685A683B68DB6800F056F97B681B6893
:103D40009A687B681B6842F480429A6038E07B681E
:103D500018683B6859683B68DB681A4600F0CAF887
:103D60007B681B685021184600F023F928E07B6827
:103D700018683B6859683B68DB681A4600F0E9F848
:103D80007B681B686021184600F013F918E07B6817
:103D900018683B6859683B68DB681A4600F0AAF867
:103DA0007B681B684021184600F003F908E07B6837
:103DB0001A683B681B681946104600F0FAF800BF05
:103DC0007B68012283F83D207B68002283F83C2039
:103DD000002318461037BD4680BD80B483B000AFC5
:103DE000786000BF0C37BD465DF8047B704780B437
:103DF00083B000AF786000BF0C37BD465DF8047B30
:103E0000704780B483B000AF786000BF0C37BD4608
:103E10005DF8047B704780B483B000AF786000BF6A
:103E20000C37BD465DF8047B7047000080B485B058
:103E300000AF786039607B681B68FB607B682A4A4A
:103E4000934203D07B68B3F1804F08D1FB6823F025
:103E50007003FB603B685B68FA681343FB607B6838
:103E6000214A93420BD07B68B3F1804F07D07B6827
:103E70001E4A934203D07B681D4A934208D1FB68D7
:103E800023F44073FB603B68DB68FA681343FB6014
:103E9000FB6823F080023B685B691343FB607B682F
:103EA000FA681A603B689A687B68DA623B681A684D
:103EB0007B689A627B680C4A934207D07B680B4A06
:103EC000934203D07B680A4A934203D13B681A6944
:103ED0007B681A637B6801225A6100BF1437BD46B4
:103EE0005DF8047B704700BF002C0140004001409A
:103EF0000044014080B487B000AFF860B9607A60D8
:103F0000FB681B6A7B61FB681B6A23F00102FB688C
:103F10001A62FB689B693B613B6923F0F0033B61DC
:103F20007B681B013A6913433B617B6923F00A03F9
:103F30007B617A69BB6813437B61FB683A699A616C
:103F4000FB687A691A6200BF1C37BD465DF8047BC6
:103F5000704780B487B000AFF860B9607A60FB68E2
:103F60001B6A23F01002FB681A62FB689B697B6185
:103F7000FB681B6A3B617B6923F470437B617B6850
:103F80001B037A6913437B613B6923F0A0033B6108
:103F9000BB681B013A6913433B61FB687A699A610C
:103FA000FB683A691A6200BF1C37BD465DF8047BA6
:103FB000704780B485B000AF786039607B689B68DB
:103FC000FB60FB6823F07003FB603A68FB681343F7
:103FD00043F00703FB607B68FA689A6000BF143700
:103FE000BD465DF8047B704780B487B000AFF860D1
:103FF000B9607A603B60FB689B687B617B6923F4F6
:104000007F437B613B681A027B681A43BB6813439A
:104010007A6913437B61FB687A699A6000BF1C3739
:10402000BD465DF8047B704780B485B000AF786012
:1040300039607B6893F83C30012B01D1022340E0CA
:104040007B68012283F83C207B68022283F83D20B4
:104050007B681B685B68FB607B681B689B68BB6058
:104060007B681B681A4A934208D1FB6823F47003EB
:10407000FB603B685B68FA681343FB60FB6823F0F6
:104080007003FB603B681B68FA681343FB60BB6806
:1040900023F08003BB603B689B68BA681343BB6036
:1040A0007B681B68FA685A607B681B68BA689A600C
:1040B0007B68012283F83D207B68002283F83C2046
:1040C000002318461437BD465DF8047B704700BFD7
:1040D000002C014080B483B000AF786000BF0C3783
:1040E000BD465DF8047B704780B483B000AF786054
:1040F00000BF0C37BD465DF8047B704780B483B0C9
:1041000000AF786000BF0C37BD465DF8047B704798
:1041100080B582B000AF78607B68002B01D10123AD
:1041200043E07B6893F87130DBB2002B06D17B68EB
:10413000002283F87020786802F0A4FC7B682422B7
:1041400083F871207B681B681A687B681B6822F003
:1041500001021A60786800F0A5FA0346012B01D12C
:10416000012322E07B685B6A002B02D0786800F0B4
:104170008FFD7B681B685A687B681B6822F490423D
:104180005A607B681B689A687B681B6822F02A0269
:104190009A607B681B681A687B681B6842F00102A2
:1041A0001A60786800F016FE034618460837BD46C8
:1041B00080BD80B582B000AF78607B68002B01D1F4
:1041C00001232AE07B68242283F871207B681B6826
:1041D0001A687B681B6822F001021A607B681B6802
:1041E00000221A607B681B6800225A607B681B688B
:1041F00000229A60786802F091FC7B6800225A677E
:104200007B68002283F871207B68002283F872208B
:104210007B68002283F87020002318460837BD46CB
:1042200080BD000080B485B000AFF860B96013466F
:10423000FB80FB6893F87130DBB2202B45D1BB6863
:10424000002B02D0FB88002B01D101233EE0FB684C
:1042500093F87030012B01D1022337E0FB68012273
:1042600083F87020FB68BA68DA64FB68FA88A3F800
:104270005020FB68FA88A3F85220FB6800225A6697
:10428000FB6800225A67FB68212283F87120FB68D3
:104290009B68B3F5805F07D1FB681B69002B03D1D6
:1042A000FB680D4A5A6602E0FB680C4A5A66FB68D6
:1042B000002283F87020FB681B681A68FB681B6883
:1042C00042F080021A60002300E0022318461437EF
:1042D000BD465DF8047B7047DD4F0008694F00085C
:1042E00080B485B000AFF860B9601346FB80FB680E
:1042F00093F87230DBB2202B40F08680BB68002B35
:1043000002D0FB88002B01D101237EE0FB6893F8EB
:104310007030012B01D1022377E0FB68012283F882
:104320007020FB68BA685A65FB68FA88A3F85820C1
:10433000FB68FA88A3F85A20FB6800221A66FB681B
:104340009B68B3F5805F0ED1FB681B69002B05D11C
:10435000FB6840F2FF12A3F85C2028E0FB68FF2214
:10436000A3F85C2023E0FB689B68002B0DD1FB6861
:104370001B69002B04D1FB68FF22A3F85C2016E028
:10438000FB687F22A3F85C2011E0FB689B68B3F117
:10439000805F0CD1FB681B69002B04D1FB687F2276
:1043A000A3F85C2003E0FB683F22A3F85C20FB68D5
:1043B00000225A67FB68222283F87220FB681B6880
:1043C0009A68FB681B6842F001029A60FB689B6870
:1043D000B3F5805F07D1FB681B69002B03D1FB6835
:1043E0000D4A1A6602E0FB680C4A1A66FB68002256
:1043F00083F87020FB681B681A68FB681B6842F42E
:1044000090721A60002300E0022318461437BD465C
:104410005DF8047B704700BF3751000891500008D9
:1044200080B586B000AF78607B681B68DB697B6114
:104430007B681B681B683B617B681B689B68FB6033
:104440007B6903F00F03BB60BB68002B13D17B6952
:1044500003F02003002B0ED03B6903F02003002B58
:1044600009D07B681B6E002B00F0FD807B681B6E03
:1044700078689847F7E0BB68002B00F0BF80FB68C6
:1044800003F00103002B05D13B6903F49073002B6B
:1044900000F0B4807B6903F00103002B0ED03B6970
:1044A00003F48073002B09D07B681B6801221A6219
:1044B0007B685B6F43F001027B685A677B6903F09E
:1044C0000203002B0ED0FB6803F00103002B09D080
:1044D0007B681B6802221A627B685B6F43F00402F0
:1044E0007B685A677B6903F00403002B0ED0FB68DE
:1044F00003F00103002B09D07B681B6804221A62B9
:104500007B685B6F43F002027B685A677B6903F04C
:104510000803002B13D03B6903F02003002B04D1C8
:10452000FB6803F00103002B09D07B681B6808229D
:104530001A627B685B6F43F008027B685A677B688E
:104540005B6F002B00F091807B6903F02003002B50
:104550000CD03B6903F02003002B07D07B681B6E57
:10456000002B03D07B681B6E786898477B685B6F75
:1045700003F00803002B06D17B681B689B6803F0DF
:104580004003402B31D1786800F0B7FC7B681B6892
:104590009B6803F04003402B23D17B681B689A681B
:1045A0007B681B6822F040029A607B68DB6E002B00
:1045B00013D07B68DB6E304A9A637B68DB6E1846EB
:1045C000FCF78BFF0346002B16D07B68DB6E9B6BE2
:1045D0007A68D26E104698470EE0786800F058F876
:1045E0000AE0786800F054F806E0786800F050F8C7
:1045F0007B6800225A6738E000BF36E07B6903F42D
:104600008013002B0DD0FB6803F48003002B08D02F
:104610007B681B684FF480121A62786800F0E0FD36
:1046200026E07B6903F08003002B0DD03B6903F08B
:104630008003002B08D07B685B6E002B17D07B6853
:104640005B6E7868984712E07B6903F04003002BAB
:104650000ED03B6903F04003002B09D0786800F0CE
:10466000FDFC00BF04E000BF02E000BF00E000BFAF
:104670001837BD4680BD00BF3D4F000880B483B0F1
:1046800000AF786000BF0C37BD465DF8047B704713
:1046900080B483B000AF786000BF0C37BD465DF8D2
:1046A000047B70472DE9904888B000AF7860002304
:1046B000FB611023FB7600237B8100237B610023B9
:1046C000FB740023FB607B689A687B681B691A4354
:1046D0007B685B691A437B68DB691343FB617B681A
:1046E0001B681A68AE4B13407A681268F9690B436D
:1046F00013607B681B685B6823F440517B68DA6851
:104700007B681B680A435A607B689B69FB617B6816
:104710001B68A44A934204D07B681B6AFA6913435E
:10472000FB617B681B689B6823F430617B681B68B6
:10473000FA690A439A607B681B689B4A934221D1BD
:104740009A4BD3F8883003F00303032B16D801A249
:1047500052F823F065470008714700086B470008CE
:10476000774700080123FB7696E00223FB7693E06F
:104770000423FB7690E00823FB768DE01023FB7684
:1047800000BF89E07B681B68894A934234D1874B1C
:10479000D3F8883003F00C030C2B29D801A252F86F
:1047A00023F000BFD9470008F1470008F14700088F
:1047B000F1470008E5470008F1470008F147000805
:1047C000F1470008DF470008F1470008F1470008FB
:1047D000F1470008EB4700080023FB765CE002236A
:1047E000FB7659E00423FB7656E00823FB7653E082
:1047F0001023FB7600BF4FE07B681B686D4A934235
:1048000020D16A4BD3F8883003F03003102B0FD03F
:10481000102B02D8002B05D010E0202B05D0302B18
:1048200009D00BE00023FB7636E00223FB7633E071
:104830000423FB7630E00823FB762DE01023FB7683
:1048400000BF29E07B681B68564A934223D1574B2F
:10485000D3F8883003F44063B3F5806F12D0B3F51A
:10486000806F02D8002B07D012E0B3F5006F06D09E
:10487000B3F5406F09D00BE00023FB760CE0022378
:10488000FB7609E00423FB7606E00823FB7603E0D1
:104890001023FB7600E000BF7B681B68414A93420F
:1048A00040F0F480FB7E082B23D801A252F823F0BD
:1048B000D5480008F3480008DD480008F348000820
:1048C000E3480008F3480008F3480008F3480008EC
:1048D000EB480008FEF7C8F8F8600DE0364BFB60C7
:1048E0000AE0FEF719F8F86006E04FF40043FB60B9
:1048F00002E00123FB7400BFFB68002B00F0B981CC
:104900007B685A6813465B001344FA689A4205D3E1
:104910007B685B681B03FA689A4202D90123FB7427
:10492000A7E1FB7E082B00F29E8001A252F823F043
:1049300055490008674A0008BD490008674A000851
:10494000F1490008674A0008674A0008674A0008FA
:104950003D4A0008FEF788F8034619464FF000026A
:104960004FF000034FF00004140244EA11640B02FC
:104970007A685268520811464FF0000213EB010B9F
:1049800044EB020C584661467B685B684FF00004BC
:104990001A462346FCF70AF903460C467B6165E09C
:1049A000F369FFEF00800040003801400010024032
:1049B00000440040004800400024F4007B685B682D
:1049C0005B084FF00004B1494FF0000213EB010BFC
:1049D00044EB020C584661467B685B684FF000046C
:1049E0001A462346FCF7E2F803460C467B613DE09D
:1049F000FDF792FF034619464FF000024FF0000307
:104A00004FF00004140244EA11640B027A68526801
:104A1000520811464FF0000213EB010B44EB020C5D
:104A2000584661467B685B684FF000041A4623468F
:104A3000FCF7BCF803460C467B6117E07B685B68BB
:104A40005B084FF0000413F5000044F100017B689F
:104A50005B684FF000041A462346FCF7A7F80346AC
:104A60000C467B6102E00123FB7400BF7B69B3F558
:104A7000407F08D37B69B3F5801F04D27B681B6835
:104A80007A69DA60F5E00123FB74F2E07B68DB69A8
:104A9000B3F5004F7FD1FB7E082B5CD801A252F802
:104AA00023F000BFC94A0008E74A0008054B000888
:104AB000574B0008214B0008574B0008574B000884
:104AC000574B00083F4B0008FDF7CEFF03465A0046
:104AD0007B685B685B081A447B685B68B2FBF3F336
:104AE0009BB27B613AE0FDF7D5FF03465A007B6835
:104AF0005B685B081A447B685B68B2FBF3F39BB2AC
:104B00007B612BE07B685B685B0803F1F47303F562
:104B100090437A685268B3FBF2F39BB27B611DE06D
:104B2000FDF7FAFE03465A007B685B685B081A448F
:104B30007B685B68B2FBF3F39BB27B610EE07B6842
:104B40005B685B0803F580327B685B68B2FBF3F35C
:104B50009BB27B6102E00123FB7400BF7B690F2BDA
:104B600016D97B69B3F5803F12D27B699BB223F0E3
:104B70000F037B817B695B089BB203F007039AB24A
:104B80007B8913437B817B681B687A89DA6070E0DC
:104B90000123FB746DE0FB7E082B59D801A252F86B
:104BA00023F000BFC94B0008E54B0008014C00088A
:104BB000514C00081D4C0008514C0008514C000895
:104BC000514C0008394C0008FDF74EFF02467B6847
:104BD0005B685B081A447B685B68B2FBF3F39BB2CB
:104BE0007B6138E0FDF756FF02467B685B685B0837
:104BF0001A447B685B68B2FBF3F39BB27B612AE0EB
:104C00007B685B685B0803F5740303F510537A68EF
:104C10005268B3FBF2F39BB27B611CE0FDF77CFEB4
:104C200002467B685B685B081A447B685B68B2FB82
:104C3000F3F39BB27B610EE07B685B685B0803F576
:104C400000427B685B68B2FBF3F39BB27B6102E0DE
:104C50000123FB7400BF7B690F2B08D97B69B3F577
:104C6000803F04D27B681B687A69DA6001E0012327
:104C7000FB747B6800221A667B6800225A66FB7C04
:104C800018462037BD46BDE8908800BF000024F4D8
:104C900080B483B000AF78607B685B6A03F0010387
:104CA000002B0AD07B681B685B6823F400317B68AB
:104CB0009A6A7B681B680A435A607B685B6A03F0E8
:104CC0000203002B0AD07B681B685B6823F48031E9
:104CD0007B68DA6A7B681B680A435A607B685B6A98
:104CE00003F00403002B0AD07B681B685B6823F485
:104CF00080217B681A6B7B681B680A435A607B685B
:104D00005B6A03F00803002B0AD07B681B685B68B2
:104D100023F400417B685A6B7B681B680A435A6026
:104D20007B685B6A03F01003002B0AD07B681B686A
:104D30009B6823F480517B689A6B7B681B680A43ED
:104D40009A607B685B6A03F02003002B0AD07B68C3
:104D50001B689B6823F400517B68DA6B7B681B68D7
:104D60000A439A607B685B6A03F04003002B1AD009
:104D70007B681B685B6823F480117B681A6C7B6816
:104D80001B680A435A607B681B6CB3F5801F0AD10D
:104D90007B681B685B6823F4C0017B685A6C7B6886
:104DA0001B680A435A607B685B6A03F08003002B30
:104DB0000AD07B681B685B6823F400217B689A6CCF
:104DC0007B681B680A435A6000BF0C37BD465DF81C
:104DD000047B704780B586B002AF78600023FB602B
:104DE0007B6800225A67FCF719FAF8607B681B6839
:104DF0001B6803F00803082B0ED16FF07E4300936D
:104E0000FB6800224FF40011786800F02CF803468C
:104E1000002B01D0032322E07B681B681B6803F092
:104E20000403042B0ED16FF07E430093FB68002235
:104E30004FF48001786800F016F80346002B01D08B
:104E400003230CE07B68202283F871207B682022FA
:104E500083F872207B68002283F8702000231846B4
:104E60001037BD4680BD80B584B000AFF860B96032
:104E70003B601346FB712CE0BB69B3F1FF3F28D0C8
:104E8000BB69002B07D0FCF7C9F902463B68D31A6F
:104E9000BA699A421DD2FB681B681A68FB681B68D6
:104EA00022F4D0721A60FB681B689A68FB681B6862
:104EB00022F001029A60FB68202283F87120FB68CF
:104EC000202283F87220FB68002283F870200323DD
:104ED0000FE0FB681B68DA69BB681340BA689A4246
:104EE0000CBF01230023DBB21A46FB799A42C3D0E0
:104EF000002318461037BD4680BD80B483B000AF94
:104F000078607B681B681A687B681B6822F4907263
:104F10001A607B681B689A687B681B6822F0010234
:104F20009A607B68202283F872207B6800221A66D0
:104F300000BF0C37BD465DF8047B704780B584B078
:104F400000AF78607B689B6AFB60FB680022A3F877
:104F50005A20FB680022A3F85220F868FFF798FB5C
:104F600000BF1037BD4680BD80B483B000AF78600D
:104F70007B6893F87130DBB2212B29D17B68B3F8C1
:104F800052309BB2002B10D17B681B681A687B687B
:104F90001B6822F080021A607B681B681A687B68B5
:104FA0001B6842F040021A6012E07B68DB6C591CFF
:104FB0007A68D1641A787B681B6892B21A857B681C
:104FC000B3F852309BB2013B9AB27B68A3F85220EF
:104FD00000BF0C37BD465DF8047B704780B485B0D8
:104FE00000AF78607B6893F87130DBB2212B2FD152
:104FF0007B68B3F852309BB2002B10D17B681B68E2
:105000001A687B681B6822F080021A607B681B6844
:105010001A687B681B6842F040021A6018E07B68DF
:10502000DB6CFB60FB681A887B681B68C2F30802B4
:1050300092B21A857B68DB6C9A1C7B68DA647B68A9
:10504000B3F852309BB2013B9AB27B68A3F852206E
:1050500000BF1437BD465DF8047B704780B582B051
:1050600000AF78607B681B681A687B681B6822F059
:1050700040021A607B68202283F871207B6800223E
:105080005A667868FFF7FAFA00BF0837BD4680BD58
:1050900090B585B000AF78607B68B3F85C30FB8179
:1050A0007B6893F87230DBB2222B36D17B681B68A9
:1050B0009B8CBB81BB89D9B2FB89DAB27B685B6D03
:1050C0005C1C786844650A40D2B21A707B68B3F8F9
:1050D0005A309BB2013B9BB27A681946A2F85A102B
:1050E000002B24D17B681B681A687B681B6822F43C
:1050F00090721A607B681B689A687B681B6822F054
:1051000001029A607B68202283F872207B6800226B
:105110001A66786801F036FD09E07B681B681B8B16
:105120009AB27B681B6842F0080292B21A8300BFF1
:105130001437BD4690BD80B584B000AF78607B6801
:10514000B3F85C30FB817B6893F87230DBB2222BC2
:1051500038D17B681B689B8CBB817B685B6DBB60B7
:10516000BA89FB8913409AB2BB681A807B685B6D71
:105170009A1C7B685A657B68B3F85A309BB2013B36
:105180009BB27A681946A2F85A10002B24D17B688A
:105190001B681A687B681B6822F490721A607B682F
:1051A0001B689A687B681B6822F001029A607B6822
:1051B000202283F872207B6800221A66786801F04A
:1051C000E1FC09E07B681B681B8B9AB27B681B685B
:1051D00042F0080292B21A8300BF1037BD4680BD6C
:1051E00080B483B000AF786000BF0C37BD465DF877
:1051F000047B704780B487B000AFF860B960134695
:10520000FB80BB683B6100237B610BE0FA687B6934
:1052100039690B4412781A70FB680133FB607B69B3
:1052200001337B61FB887A699A42EFDB00BF1C3750
:10523000BD465DF8047B704790B587B000AF7860DD
:105240000B46FB70184B7B610023FB6072B6FCF7CA
:10525000F1F907F10C0319461448FCF7CBFA144B8B
:10526000144A1A610023FB7413E0FB7CDB08DBB2F9
:10527000DB007A681344D3E900341A46234679697F
:105280000020FCF76BF97B6908337B61FB7C0833FA
:10529000FB74FA7CFB789A42E7D3FCF7EDF962B62F
:1052A00000BF1C37BD4690BD002003084C00002005
:1052B000002002403100010080B500AF4FF0000037
:1052C0004FF0000100F020F830210748FFF7B4FF4D
:1052D00003A1D1E9000100F017F800BF80BD00BFB5
:1052E00004030201040302012000002080B500AF86
:1052F000302203490348FFF77DFF00BF80BD00BF98
:10530000200000200020030880B584B000AFC7E96A
:1053100000010E4BFB600023BB6072B6FCF78AF9FC
:1053200007F1080319460A48FCF764FA094B0A4AD0
:105330001A61D7E90023F9680020FCF70FF9FCF7A0
:105340009BF962B600BF1037BD4680BD0028030838
:105350005C000020002002403100010080B58AB0CE
:1053600000AF07F1140300221A605A609A60DA60F5
:105370001A614A4BDB6C494A43F08003D364474BC4
:10538000DB6C03F080033B613B69444BDB6C434ABD
:1053900043F00203D364414BDB6C03F00203FB6078
:1053A000FB683E4BDB6C3D4A43F00403D3643B4B4C
:1053B000DB6C03F00403BB60BB68384BDB6C374A23
:1053C00043F00103D364354BDB6C03F001037B60D6
:1053D0007B68002240213248FCF79EFD002280219C
:1053E0002F48FCF799FD40237B610123BB6100231B
:1053F000FB6100233B6207F1140319462848FCF7C0
:105400001FFB80237B610123BB610023FB61002321
:105410003B6207F1140319462148FCF711FB4FF4D6
:1054200080537B610023BB610023FB6107F1140300
:1054300019461C48FCF704FB02237B610123BB6176
:105440000023FB6100233B6207F1140319464FF070
:105450009040FCF7F5FA01237B610123BB61002337
:10546000FB6100233B6207F1140319464FF09040A3
:10547000FCF7E6FA4FF440637B610123BB61002334
:10548000FB6102233B6207F1140319460548FCF750
:10549000D7FA00BF2837BD4680BD00BF00100240CC
:1054A000000800480004004880B584B000AF786070
:1054B0000B46FB700123FB737B681A78254B1B7925
:1054C0009A4206D07B681B78002B02D00023FB7326
:1054D0003BE07B6801331B78102B09D1FA787B689D
:1054E00006331B7809339A422FD00023FB732CE03C
:1054F000FB78082B02D00023FB7326E0FB78023BED
:10550000DBB21946786800F01FFB03461B12BB7321
:10551000FB78023BDBB21946786800F015FB0346C6
:105520007B73FB78023B7A6813441B787A7B9A4240
:1055300007D1FB78013B7A6813441B78BA7B9A4207
:1055400002D00023FB7300E000BFFB7B184610373E
:10555000BD4680BD2000002090B58FB000AFFBF7A6
:1055600013FE00F025F9FFF7F9FE00F0FDFF01F052
:1055700059FA01F00DF901F059F901227C497D48F1
:10558000FEF7AEFE7C4BD3E9003477A2D2E90012DD
:10559000944208BF8B4202D1FFF7A8FE01E0FFF75B
:1055A0008BFE012202214FF09040FCF7B5FC4FF436
:1055B0007A70FBF73FFE6F4B1B681A686D4B1B68D8
:1055C00022F008021A606B4B242283F871203B1DE5
:1055D0001846FBF7B5FD3B1D184601F071FE03466A
:1055E00083F00103DBB2002B01D00023B5E000F013
:1055F00055F9604B1B681A685E4B1B6842F0080245
:105600001A605C4B202283F871205C4B1B78002BC6
:1056100009D05A4B00221A7001F078FB012254493C
:105620005448FEF75DFE564B93F82730012B06D108
:10563000544B1B6800225A625248FEF78DF94D4BBD
:1056400093F87230DBB2202B08D100BF0122484909
:105650004848FEF745FE0346002BF7D1484B93F828
:105660002730012B30D1484B1B78DBB2012B2BD1DB
:10567000464B18680522464B464900F0F1F9424B6B
:1056800000221A703E4B93F82A30002B1CD13C4B61
:10569000B3F809309AB23A4B1B8D9BB29A420DD89F
:1056A00000BF344B93F87130DBB2202BF9D10122CB
:1056B0004FF480613848FCF72FFC05E000224FF4DE
:1056C00080613548FCF728FC344B1B78DBB2002B9B
:1056D000B5D0334B1B78002BB1D1304B00221A7060
:1056E000304B1B7819463048FFF7DEFE034687F83B
:1056F000373097F83730002BA1D02A4B1B7819464A
:10570000294800F0CBFA034687F8363000BF194B22
:1057100093F87130DBB2202BF9D197F83630012B9A
:105720008DD11848FEF744F9124B1B681A68114BCB
:105730001B6822F008021A600E4B242283F87120A5
:10574000124B1B68184601F01FFC104801F04EFC7C
:10575000164801F07DFB00BF49E718463C37BD46BF
:1057600090BD00BFAFF300800403020104030201F7
:10577000880D0020100D002000280308C902002019
:1057800020000020900C0020CD0200201C0C0020E6
:10579000200C0020F40B002000040048CC02002064
:1057A000D1030020D0030020D0020020240C0020D0
:1057B00080B5AEB000AF07F1740344220021184653
:1057C0000AF090FC07F1600300221A605A609A60A8
:1057D000DA601A613B1D5C22002118460AF082FC47
:1057E00009237B674FF48033BB670123C7F88830F8
:1057F0000223C7F89C300323C7F8A0300123C7F861
:10580000A4301423C7F8A8300723C7F8AC3002230C
:10581000C7F8B0300223C7F8B43007F17403184654
:10582000FCF7F6FB0346002B01D000F02FF80F2306
:105830003B6603237B660023BB660023FB660023D5
:105840003B6707F1600304211846FCF787FF034616
:10585000002B01D000F01AF801237B6000237B624B
:105860003B1D1846FDF78CF90346002B01D000F0D4
:105870000DF84FF40070FCF775FB0346002B01D0C8
:1058800000F004F800BFB837BD4680BD80B400AF5B
:1058900000BFBD465DF8047B7047000080B586B050
:1058A00000AF01F019FC0246684B1A60674B1B6899
:1058B000002B01D101F03AFD644B1A68644B93F858
:1058C000263001331946104601F0D0FB604B1B8C8B
:1058D0009BB21A465E4BDB8B9BB2D31A40F26C72C2
:1058E000934206DC594B1B680121184601F01CFC51
:1058F00018E0574B1B8C9BB21A46554BDB8B9BB267
:10590000D31A41F20402934206DC504B1B68022179
:10591000184601F009FC05E04C4B1B6804211846B1
:1059200001F002FC494B1B680121184601F0A6FC5E
:10593000474B5B7F002B06D1444B1B680121184667
:1059400001F0AEFC05E0414B1B680021184601F058
:10595000A7FC3E4B1A683E4B93F8253007EE903A71
:10596000F8EE677A9FED3B7AC7EE876AB0EE660A7B
:10597000104601F0D5FB01237B61354BDB8B9BB2DD
:1059800007EE903AB8EE677ADFED336AC7EE267A13
:10599000C7ED047A2E4B1B8C9BB21A462C4BDB8B2B
:1059A0009BB2D31A07EE903AB8EEE77ADFED2A6A97
:1059B000C7EE267AC7ED037A244B1B68184601F020
:1059C00043FBB8607969B86804F00EF897ED040AF3
:1059D000B86804F027F897ED030AB86804F044F8B3
:1059E0001A4B1B68184601F04BFA02461B4B1A6013
:1059F000164B1A68164B5B8C9BB21946104601F089
:105A00002BFC134B93F824301946B86804F0C0F807
:105A1000B86804F03BF80E4B93F82B301946B86881
:105A200004F04AF80D4B1B68184601F083FA034650
:105A300083F00103DBB2002B02D0084801F0D6FA54
:105A400000BF18461837BD4680BD00BF240C00209B
:105A5000200000200000C84200007A441C0C0020F6
:105A600080B586B000AFF860B9603B601346FB803C
:105A700001237B75FB887B8207F112023B68B968C2
:105A8000F86801F055FB03467B757B7D83F00103CD
:105A9000DBB2002B01D07B7D4BE07B8ADAB2274B57
:105AA0001A720023FB7526E0FB7DDB00BA68134405
:105AB000D3ED007A9FED227A67EE877AB6EE007A10
:105AC00077EE877AFCEEE77AFB7D9B001A461D4B4A
:105AD000134417EE902A92B21A80FB7DDB00BA685D
